:020000040000FA
:10120000F8090020D5120000F1120000A91A000010
:1012100000000000000000000000000000000000CE
:10122000000000000000000000000000F5120000B7
:101230000000000000000000F71200000D1C00007C
:10124000B91A0000C11A0000C91A0000D11A000022
:10125000D91A0000E11A0000E91A0000F11A000092
:10126000F91A0000011B0000091B0000111B0000FF
:10127000191B0000211B0000291B0000311B00006E
:10128000391B0000411B0000491B0000511B0000DE
:10129000591B0000611B0000691B0000711B00004E
:1012A000791B0000811B0000891B0000911B0000BE
:1012B000991B0000A11B0000FB120000A91B0000ED
:1012C0000348854600F07CF9004800473B160000C3
:1012D000F809002009480A4A002100A1814200D9EA
:1012E00002440848084A0260084880470848004706
:1012F000FEE7FEE7FEE7FEE7FEE7FEE70000002070
:101300000000000008ED00E000120000B92000001D
:10131000C112000030B50B460146002020220124F6
:1013200009E00D46D5409D4205D31D469540491B19
:101330002546954040191546521E002DF1DC30BD62
:1013400070B500242546002801DA01244042002916
:1013500001DA01254942FFF7DDFFAC4200D04042EF
:10136000002C00D0494270BD03460B439B0703D0BD
:1013700009E008C9121F08C0042AFAD203E00B785A
:101380000370401C491C521EF9D27047D2B201E0D2
:101390000270401C491EFBD270470022F6E710B5D0
:1013A00013460A4604461946FFF7F0FF204610BDD3
:1013B00030B505462A460B4610781C78521C5B1C3B
:1013C000002801D0A042F7D0002C03D0002802D082
:1013D0006D1CEFE7284630BDF8B502464A40D40FF1
:1013E00042004B0052085B089A4202D2024608466D
:1013F00011464A0023D0C30D4A00DDB2120EAD1AC9
:10140000202D35DA49020126490AF6058A19002CF1
:1014100000D0524220214F1B1146B9402A411018DA
:10142000C20D9A4221D0002C17D0012D08DCDA051C
:10143000801AD20F8019D207DBB200F087F8F8BD0E
:10144000DA05801A012340001B06C01880185A4292
:101450008018CA0F1043490007E04908C20711432A
:10146000DA05801A80194008801800F067F8F8BD86
:1014700061000122511A001BF7E70122D2075140F7
:10148000AAE70122D2075040A6E770B502464A40BB
:10149000D50F40004A00ED0740085208002814D03C
:1014A000002A12D0C40DD30D41020120C005520202
:1014B000490A520AE41A091812187D34914201D3DC
:1014C000641C00E04900002C01DA002070BD0023FC
:1014D000914201D3891A0343400849000028F7D1FB
:1014E00000290AD0914202D10121C90705E09142A9
:1014F00001D2012101E00121C943E005C0184019D2
:1015000000F01CF870BD10B500229623114600F0C3
:101510001DF810BD410040020122400AD205090E0B
:1015200080187F2901DA00207047962903DC962273
:10153000511AC8407047963988407047002904DA2C
:10154000401C490001D140084000704770B400249D
:10155000050C05D11024000402D1002921D011244A
:10156000050E01D100020834050F01D10001241D30
:10157000850F01D18000A41C002801DB4000641C01
:10158000002908D020252E1B0D46F540A14000D093
:1015900001212943084301061B1B000ADB1D02D55C
:1015A000002070BC7047DB05181880180029F8DA95
:1015B000401C4900F5D170BC400840007047000055
:1015C000064C0125064E05E0E36807CC2B430C3C96
:1015D00098471034B442F7D3FFF776FE343F00004B
:1015E000543F000070B58C180578401C6B075B0FEA
:1015F00001D10378401C2A1106D10278401C03E077
:1016000006780E70401C491C5B1EF9D12B0705D4CF
:101610000023521E0DD40B70491CFAE70378401CBE
:10162000CB1A921C03E01D780D70491C5B1C521EE6
:10163000F9D5A142D8D3002070BD10B500F03CFD13
:1016400001F016FD002010BD70B505460C46A01E29
:10165000C1B2284600F009F80646A01E285CB04238
:1016600001D1012070BD0020FCE730B502460B46D9
:10167000002013E01478521C604000210CE080240C
:101680000440002C04D0440007256C40E0B201E087
:101690004406200E4C1CE1B20829F0DB1C465D1EFE
:1016A000EBB2002CE6D130BD70B504460E461546AF
:1016B0002046002805DBC206D20E01219140144AC3
:1016C000116000BF3146204600F094FE012D0ED17E
:1016D0002046002809DB00BF00BFC206D20E012150
:1016E00091400C4A116000BF00BF00BF0FE02046D0
:1016F00000280ADBC206D20E01219140054A803241
:101700001160BFF34F8FBFF36F8F00BF00BF70BD7D
:1017100080E200E000E100E010B5C046C046C046EF
:10172000C04610BDF0B58BB005460E460024FF2024
:101730000A9000200990202101A8FFF72EFE284FD3
:10174000012D0ED0022D0CD0042D0AD0062D08D06C
:10175000082D06D00C2D04D00420099009980BB058
:10176000F0BD1F48006A012149028843710201222D
:101770005202114008431A490862002407E0A00001
:10178000184908586843A10001AA5050641C082C4D
:10179000F5D30C2D01D1FF20029000241CE0FF2086
:1017A0000A9011E00A98411E0A9100280AD00E48BA
:1017B0000B49C8620D48C862A00001A90858A100E1
:1017C000785001E00720CAE7A0003858A10001AA1C
:1017D00051588842E6D1641C082CE0D30998BEE732
:1017E000000002400C3F00005A5A0000A5A500006E
:1017F00003480449C8620448C8620020086370476F
:101800005A5A000000000240A5A5000008B5024693
:101810000023FF2000902548824202D90423184665
:1018200008BDFF20009006E00098411E00910028AE
:1018300001D10920F4E71E48006AC006C00F002845
:10184000F2D100F03BF8FF20009012E00098411E1A
:10185000009100280BD017481549C8621648C86285
:101860000846006A80088000801C086201E00920A8
:10187000D6E70F48006A8007800F0228E6D10020D3
:101880001070FF20009006E00098411E0091002893
:1018900001D10920C4E70648006AC006C00F00282D
:1018A000F2D1FFF7A5FF1846BAE70000FFFF0000DE
:1018B000000002405A5A0000A5A50000044805494E
:1018C000C8620548C8620020C04308637047000032
:1018D0005A5A000000000240A5A5000010B50146BC
:1018E0000020084A084BDA62084ADA621A46126A8D
:1018F0000C239A438B000C2423401A43024B1A6298
:1019000010BD00005A5A000000000240A5A50000CA
:1019100018B502460B460024FF200090244882425E
:1019200002D90424204618BDFF20009006E000984C
:10193000411E0091002801D10920F4E71D48006AEA
:10194000C006C00F0028F2D1FFF7B8FFFF200090BB
:1019500012E00098411E009100280BD0164815494E
:10196000C8621648C8620846006A80088000401CA9
:10197000086201E00920D6E70E48006A8007800F60
:101980000128E6D11360FF20009006E00098411E78
:101990000091002801D10920C5E70648006AC00669
:1019A000C00F0028F2D1FFF723FF2046BBE700005D
:1019B000FFFF0000000002405A5A0000A5A50000E9
:1019C00002461068C840C007C00F704770B5044693
:1019D0000D46044960180122294600F0E9F800206C
:1019E00070BD0000140D024070B504460E46154649
:1019F0001E4960180022314600F0DAF800201C4928
:101A00006118B20088502A7818490C39601831469C
:101A100000F0CEF86A78154910316018314600F0B0
:101A2000C7F8AA78114914316018314600F0C0F89F
:101A3000EA780E4918316018314600F0B9F82A7971
:101A40000A4920316018314600F0B2F80948806830
:101A50000121C90388436979C9030122D2031140D6
:101A6000084304498860002070BD00000C0D02404E
:101A7000000C0240000F024010B50346024818183F
:101A80008C000251002010BD000C024070B50446CD
:101A90000D46044960180122294600F089F800200B
:101AA00070BD0000100D024008B50020009000BF7E
:101AB00000980028FCD008BD10B5C046C04610BD37
:101AC00010B5C046C04610BD10B5C046C04610BDDA
:101AD00010B5C046C04610BD10B5C046C04610BDCA
:101AE00010B5C046C04610BD10B500F005FB10BDD6
:101AF00010B500F01BFB10BD10B5C046C04610BDB0
:101B000010B5C046C04610BD10B5C046C04610BD99
:101B100010B5C046C04610BD10B5C046C04610BD89
:101B200010B5C046C04610BD10B5C046C04610BD79
:101B300010B5C046C04610BD10B5C046C04610BD69
:101B400010B5C046C04610BD10B5C046C04610BD59
:101B500010B5C046C04610BD10B5C046C04610BD49
:101B600010B5C046C04610BD10B5C046C04610BD39
:101B700010B5C046C04610BD10B5C046C04610BD29
:101B800010B5C046C04610BD10B5C046C04610BD19
:101B900010B5C046C04610BD10B5C046C04610BD09
:101BA00010B5C046C04610BD10B5C046C04610BDF9
:101BB00010B5012A05D1036801248C40234303603A
:101BC00004E0036801248C40A343036010BD024677
:101BD00090680840002801D0012070470020FCE7F1
:101BE00002460020106008784B7818438B78184321
:101BF000CB78184340231843106000209060704752
:101C00000246D160002070474160704710B500F077
:101C100001F810BD10B504480088401C0249088036
:101C200000F0E4FC10BD000000000020F8B50546FF
:101C30000C46002700F074FB002C01D0012000E0CE
:101C4000002004465148066A2B0000F089FB050479
:101C500017394D7298004D48006840084000E10770
:101C6000C90F08434949086000BF002C05D0474808
:101C7000C0680005C00F0028F7D082E04348006A22
:101C80000121090788434018404908624048C0685C
:101C9000032108433E49C8603C480068022188434C
:101CA00061000222114008433849086000BF002C3F
:101CB00005D0364800694006C00F0028F7D060E024
:101CC0003248006804218843A100042211400843DF
:101CD0002E49086000BF002C05D02C484069C00484
:101CE000C00F0028F7D04CE02848006A01210907FE
:101CF000884340182549086225484038C0680321B8
:101D00008903084322494039C860204800680821F7
:101D10008843E1000822114008431C49086000BFC5
:101D2000002C05D0194880694006C00F0028F7D064
:101D300027E01648006A0121090488434018134926
:101D400008621448006840084000401C11490860BF
:101D5000142000F057FF0D4800681021884321012E
:101D60001022114008430949086000BF002C05D02B
:101D70000648C06B4003C00F0028F7D001E00427DD
:101D800000BF00BF014806623846F8BD0020004091
:101D9000C00D02400024004030B589B00024142258
:101DA000564904A8FFF7E0FA54481430006803903D
:101DB00000200090019002905148018868460181FE
:101DC0004F4841886846C1804D4881886846818077
:101DD0004B48C188684641804948203001886846A0
:101DE0000180484800680006450F2B0000F0B8FA53
:101DF00005042E303E4178004248C0684005400D41
:101E000069460989884201D1089C1EE03D48C068A6
:101E10004005400D6946C988884201D1079C14E0FD
:101E20003848C0684005400D69468988884201D11C
:101E3000069C0AE03348C0684005400D6946498861
:101E4000884201D1059C00E0049C4BE02E4C49E007
:101E5000684600882B4949698905890D884202D165
:101E60006846C48901E0684684893BE00124E403B4
:101E700038E02448C06B8007800F032829D16846CA
:101E800000892049C9684905490D884201D1089C4B
:101E900020E06846C0881B49C9684905490D884249
:101EA00001D1079C16E0684680881649C968490533
:101EB000490D884201D1069C0CE0684640881149D2
:101EC000C9684905490D884201D1059C02E0049C7E
:101ED00000E00D4C0B48C06BC005000F444301E00F
:101EE000002400BF00BF074800684005410F20469E
:101EF000C8400446204609B030BD0000F43E000052
:101F0000000C1000002000400048E80110B500243B
:101F1000FFF742FF044604480068C004810F2046D2
:101F2000C8400446204610BD002000401EB50146B2
:101F3000002200200090019002903D4803886846EE
:101F400003813B4843886846C38039488388684694
:101F500083803748C38868464380887803282DD11A
:101F600068460089334BDB685B055B0D984202D104
:101F7000C878022820DC6846C0882E4BDB685B05E9
:101F80005B0D984202D1C878022815DC684680882B
:101F9000284BDB685B055B0D984202D1C8780328AB
:101FA0000ADC68464088234BDB685B055B0D984282
:101FB0000CD1C878062809DD06201EBDC8781E4B46
:101FC00058431E4B984201D90620F6E71948C06BCA
:101FD00003235B0398430B785B03032464032340D0
:101FE0001843144BD8631846C06B1C2398434B7896
:101FF0009B001C24234018430E4BD8631846C06B2B
:10200000FF23E1339843CB785B01FF24E134234085
:102010001843084BD8631846C06B800880008B7843
:102020009B079B0F1843034BD8631046C5E700007E
:10203000000C1000002000400048E801006CDC02A9
:1020400010B501460020064AD26B0723DB039A43F2
:10205000CB030724E40323401A43014BDA6310BD8A
:102060000020004070B504460D462A46214602482D
:10207000FFF79EFD002070BD2020004070B5044693
:102080000025264600F04CF906480068E021884308
:102090007101E022114008430249086000F004F891
:1020A000284670BD0020004010B5FFF775FE0149BD
:1020B000086010BD8C01002010B50D4949888805C5
:1020C000800D0C494969890A89020143094A516115
:1020D0000749203909894805400D1146C968C90AD0
:1020E000C9020143D160FFF7DFFF00F00BF910BD1B
:1020F000200C10000020004010B5002101208007B6
:1021000000F055F800280DD000210120800700F0D4
:1021100025F80120800700F0A1F804460249204676
:1021200000F05AFC10BD00005E02002010B5002136
:10213000084800F03CF800280BD00021054800F0CA
:102140000DF8044800F08AF804460349204600F0E0
:1021500043FC10BD000100405E02002070B5044643
:102160000D460022294620461430FFF721FD0020AD
:1021700070BD70B504460D4600222946201DFFF7AC
:1021800017FD002070BD70B504460D46012229469A
:10219000201DFFF70DFD002070BD70B504460D46F3
:1021A00001222946201DFFF703FD002070BD70B5F8
:1021B00004460D460026294620461030FFF700FC55
:1021C0000646304670BD0000F0B585B005460C46A9
:1021D0000127214903C90491039000200290002C9B
:1021E00002D1042005B0F0BD0020686060886178ED
:1021F0000843A18808432178084368602078402874
:1022000002D02078C02824D1A088C117C90D091890
:102210004912890003AA515A8EB2E168B1400846BA
:10222000FFF771F90190A068FFF76DF9009001992F
:10223000FFF72BF902903F2109060298FFF7CCF82F
:102240000190FFF767F980B2A86104212846FFF7E3
:102250009AFF00273846C5E72C3F00000146086872
:10226000C0B2704770B504460D4600BF032120463A
:10227000FFF79DFF0028F9D02068000A0002E9B2AC
:102280000843206000BF01212046FFF790FF00288F
:10229000F9D001212046FFF761FF002070BD00004A
:1022A0001E2002490860E12008607047800F00404E
:1022B00030B503460C460125204600F017F80648C5
:1022C00040682021884359012022114008430249D7
:1022D00048600025284630BD800F00401E2002497E
:1022E0000860E12008607047800F00400449496899
:1022F000090909010207120F1143014A5160704791
:10230000800F00400549086A096A012212079143BB
:102310008918024A11621146086270470020004085
:102320000248034988600348886070475A5A000091
:1023300000200040A5A500000FB410B50846074ACC
:1023400002A900F0A2F8044602A9002000F0ACF8AF
:10235000204610BC08BC04B018470000A9240000A7
:1023600030B47446641E2578641CAB4204D3635DAC
:102370005B00E31830BC18471D46F8E710B500288D
:1023800019DB1A4A03231B02D21883089B00D25878
:102390008307DC0EFF23A3409A438B071B0E8407A1
:1023A000E40EA3401A43114B032424021B19840892
:1023B000A4001A5118E00E4A03071B0F083B9B08A4
:1023C0009B00D2588307DC0EFF23A3409A438B0760
:1023D0001B0E8407E40EA3401A43054B0407240F89
:1023E000083CA408A4001A5110BD000000E100E060
:1023F0001CED00E010B5002819DB1A4A03231B026C
:10240000D21883089B00D2588307DC0EFF23A34019
:102410009A438B071B0E8407E40EA3401A43114B0B
:10242000032424021B198408A4001A5118E00E4A40
:1024300003071B0F083B9B089B00D2588307DC0E49
:10244000FF23A3409A438B071B0E8407E40EA3408F
:102450001A43054B0407240F083CA408A4001A5192
:1024600010BD000000E100E01CED00E002E008C843
:10247000121F08C1002AFAD170477047002001E0FE
:1024800001C1121F002AFBD17047F8B516460F464E
:102490000446002503E03946B047641C6D1C2078D3
:1024A0000028F8D12846F8BD0A68531C0B6010704C
:1024B00070470246107A002806DD02204870537BE0
:1024C0008B70107A401EC8700020704770B50446AB
:1024D00011A1601CFFF730FF1448C07830306073E2
:1024E000124988786421FEF72BFF3030A0730F4922
:1024F00088780A21FEF724FF05460A21FEF720FF0F
:102500003031E173094988780A21FEF719FF30312B
:102510002174002070BD00007B22636F6D5F6164D9
:102520006A223A22202020227D000000F6010020AD
:1025300070B504460D4660787E2822D1E0780428E4
:1025400002D0E07802281CD12079322819DA697883
:10255000A078814215D12179601CFFF775F8002819
:1025600005D12079801E611C085CAA2809D16079F8
:10257000012804D1044829460268204690470120DA
:1025800070BD0020FCE70000903E000070B50446DE
:102590000D4602266078B04206DA60788000034972
:1025A0000A5829462046904770BD00005C3E000056
:1025B00010B50446002020703221601CFEF7EDFEAD
:1025C00010BD000010B5002407E0A000054A105817
:1025D000816805488847601CC4B2042CF5DB0020E4
:1025E00010BD000004000020C301002010B500242D
:1025F00007E0A000054A1058C16805488847601CDC
:10260000C4B2042CF5DB002010BD00000400002043
:102610009001002010B501F0D7FA01F05DF800201C
:1026200010BD000010B500248CE0484804704848F4
:10263000016846488847002860D0E00045494018B6
:10264000C0884549884212DAE0004249085C012806
:1026500008D1E0004018C088401CE1003D4A8918BC
:10266000C88004E00020E1003A4A8918C880E000F0
:1026700038494018C0881E2810DDE000085C012899
:102680000CD1601C354908700020E100314A5054DB
:10269000E10089188880E1008918C880E0002D4990
:1026A0004018C08805284BDDE000401880880028CD
:1026B00046DDE000401880882749884205D10C207B
:1026C000E100244A8918487012E0E00021494018CE
:1026D0004078401CE1001F4A89184870E00011460C
:1026E00040184078052803DD0520E100891848706E
:1026F0000020E100174A8918888021E0E000154990
:10270000401880881449884208DAE00011494018CE
:102710008088401CE1000F4A89188880E0000D493C
:102720004018808805280BDDE000085C012807D0F0
:102730000120E100074A50540020E1008918C880B8
:10274000601CC4B2042C00DA6FE710BD0A0500203B
:10275000C0000020EA040020B80B0000A000002008
:1027600010B50446204601F0C3F9002010BD00005A
:1027700070B5044619A1601CFEF71AFE00282AD085
:1027800019A1601CFEF714FE0546A878302821DB4D
:10279000FF26A8783038C6B20321144A30460830E4
:1027A0001154102211491248FEF7DEFD0120104994
:1027B000491E08700F48006841680D48401E884750
:1027C0000A48805D3030A073082108480830FEF7C1
:1027D000E4FD00BF00BF002070BD00007B226275D9
:1027E00074746F6E223A22003A22000070050020B5
:1027F0003E050020D400002070B504460D46122D81
:1028000001D2002070BD20786D282ED16078AC28D0
:102810002BD1A079262828D1207CA62825D1607C20
:10282000DA2822D1122012490870122211491048C8
:10283000401CFEF799FD1048006841680C48884725
:1028400011200002FEF7E2FF0C4911200002FFF701
:102850005FF800BFBFF34F8F09480A49C860BFF354
:102860004F8F00BF00BF00BFFDE70020CAE7000098
:102870002A020020600000203C000020230189671C
:102880000400FA0500ED00E070B505460C46412055
:10289000C000005D092819DA4121C900095D322212
:1028A000514308190A496118FEF75EFD4120C00036
:1028B000005D41002046FF30F53045524120C00008
:1028C000005D401CC1B24120C000015570BD000038
:1028D0000E02000070B504460D464120C000005DA8
:1028E000002854DD32212B482018FEF756FD3221F6
:1028F000092080012018FEF750FD4120C000005D36
:10290000401E322250430119092080012018FEF791
:102910002BFD3221092080012018FFF76DFF412097
:10292000C000005D401E41002046FF30F530405A97
:1029300009218901611848864121C900095D491EA4
:102940003222514308191146FEF727FD002141208C
:10295000C000005D401E42002046FF30F53081522D
:102960004120C000005D401EC1B24120C0000155A1
:102970003222092080012118681CFEF7F5FC322163
:10298000092080012018FEF708FD012070BD0020FD
:10299000FCE700000E02000010B504460D48005B85
:1029A000401C81B20B480153005B0A2810DB0A214E
:1029B00008480153801C005B002809DD8321890041
:1029C000085B2146FFF760FF002183208000015350
:1029D00010BD00000A02000010B50023094A53523E
:1029E000921C525A312A0BDA83229200535A525ABD
:1029F000521C94B2832292005452921C8A18D054D2
:102A000010BD00000A020000FFB50F9F109D0024BA
:102A1000302F5ADA7E212046621CD4B26A1C11542F
:102A20002146621CD4B26A1C009850542146621C94
:102A3000D4B26A1C0198505400212046621CD4B2C2
:102A40006A1C11542146621CD4B26A1C029850546C
:102A50002146621CD4B26A1C039850542146621C61
:102A6000D4B26A1C099850542146621CD4B26A1C24
:102A70000A9850542146621CD4B26A1C0B985054D8
:102A80002146621CD4B26A1C0C9850542146621C28
:102A9000D4B26A1C0D985054002606E00E98805D52
:102AA000A219691C8854701CC6B2BE42F6DBE0193C
:102AB000C4B2A01C28712146681CFEF7D6FD691C13
:102AC00008557D21681C621C8154FFBD70B5044609
:102AD00031A1601CFEF76CFC00282AD031A1601CDB
:102AE000FEF766FC0546A878302821DBFF26E8784B
:102AF0003038C6B228793038012802D12A498855A1
:102B000002E0002028498855102227492748FEF76F
:102B10002BFC00202549491E0870254800684168A3
:102B20002248401E88472048805D3030A07300BF97
:102B300030E020A1601CFEF73BFC00282AD019A140
:102B4000601CFEF735FC0546002668793038C6B2B1
:102B500000200DE0012181403140002903D00121F6
:102B6000114A115402E000210F4A1154411CC8B20D
:102B70000828EFDB10220C490C48FEF7F5FB00207B
:102B80000A49491E08700A48006841680748401E03
:102B9000884700BF002070BD7B226C616D70223AB7
:102BA000220000003A220000700500203E050020AF
:102BB000D40000207B226C616D705F6D756C223AD1
:102BC0002200000010B50A460146002900D110BDC0
:102BD00002E000230B70491C1346521E002BF8D153
:102BE00000BFF4E710B5002109E0002203E05C1CFF
:102BF000E3B2541CE2B2642AF9DB4C1CA1B281425C
:102C0000F3DB10BD70B5054611481249486100203C
:102C10008861052008610FE000200E4988610E4997
:102C20000E480068FEF776FB012109060C1A00BF6A
:102C300008488069A042FBD828466D1E0028EBD1C9
:102C400004480069400840000249086170BD000066
:102C5000FFFFFF0000E000E0A08601008C010020E3
:102C600070B5054612A1681CFEF7A2FB00281CD017
:102C700013A1681CFEF79CFB0446A078302813DBE8
:102C8000A178303964224A43E17830390A23594324
:102C90005218217930395118C8B20A49097881424D
:102CA00001D00849087000BF00BF002070BD0000BF
:102CB0007B22645F737769746368223A22000000A4
:102CC0003A22000018000020024600207047000051
:102CD00010B50446034800688168204688470020F4
:102CE00010BD00001400002010B504460348006821
:102CF000816820468847002010BD00003C0000206D
:102D000010B5044600F087FF00F0B6FF002010BDAC
:102D100010B50446034800688168204688470020B3
:102D200010BD0000880000200146002070471CB53F
:102D3000044601211C20FFF795F901216846017026
:102D4000417081700021C1700171012141716A4699
:102D500000210846FEF748FE6A4604210020FEF7DF
:102D600043FE6A4605210020FEF73EFE6A46062124
:102D70000020FEF739FE6A4608214020FEF734FEA7
:102D80006A4609214020FEF72FFE6A460A214020AC
:102D9000FEF72AFE6A460B214020FEF725FE6A4612
:102DA0000C214020FEF720FE6A460D214020FEF750
:102DB0001BFE6A460E214020FEF716FE6A460F21D2
:102DC0004020FEF711FE00201CBD000010B5044697
:102DD00003480068816820468847002010BD000035
:102DE000D400002010B504460348006881682046DE
:102DF0008847002010BD0000F80000203EB50446C2
:102E000001210620FFF72EF91021684601720121E9
:102E100041720021C172817202A90F48FEF7E0FEE3
:102E200006216846FFF7CEFE01211C20FFF71AF9A4
:102E300000216846417001706A4607210020FEF7B4
:102E4000D3FD012207210020FEF716FE00210248D3
:102E5000FEF7DAFE00203EBD0008004010B5044633
:102E600003480068816820468847002010BD0000A4
:102E70003C01002010B504460348006881682046E4
:102E80008847002010BD0000600100201CB50446EA
:102E900001211C20FFF7E6F801216846017041700E
:102EA00081700021C1700171012141716A460021C8
:102EB0004020FEF799FD6A4601214020FEF794FD6F
:102EC0006A4602214020FEF78FFD6A46032140201A
:102ED000FEF78AFD6A4604214020FEF785FD6A461A
:102EE00005214020FEF780FD00201CBD0246002089
:102EF00070470246002070470246002070470000DD
:102F000070B504460D460626207BB04208DA207BC9
:102F1000800004490A58294620469047012070BD88
:102F20000020FCE7783E0000024600207047024681
:102F300000207047024600207047000010B504468C
:102F400003480068C16820468847002010BD000083
:102F50001400002001460120024A1268D0700020AF
:102F60007047000048000020014600207047000024
:102F700010B5044603480068C16820468847002011
:102F800010BD00008800002010B504460A48006803
:102F90000088401C084909680880074909680888B2
:102FA0000A21FEF7CDF9002903D101200249096861
:102FB000C870002010BD0000A800002001460020BD
:102FC0007047000010B5044603480068C1682046F9
:102FD0008847002010BD0000D400002010B5044632
:102FE000104800680088401C0E49096808800D4997
:102FF000096808886421FEF7A3F9002903D101209C
:1030000008490968C870074800688088002806DDFC
:10301000044800688088401E0249096888800020B2
:1030200010BD000004010020014600207047000090
:1030300010B504460A4800680088401C0849096821
:1030400008800749096808887D21C900FEF778F9DA
:10305000002903D1012002490968C870002010BD71
:1030600048010020014600207047014600207047BB
:1030700000F080FDFFF7A6FA03E0FFF7CBFA00F0BF
:1030800043FEFAE702460520487000238B700123B7
:10309000CB70937B0B7100207047000010B5044685
:1030A00015A1601CFFF748F9184840783030A0732C
:1030B000164880783030E0731448C078303020747F
:1030C000124800793030C1B2601C61740FE00F49C2
:1030D0000979012282401140002903D001210C4AC4
:1030E000115402E000210A4A1154411CC8B20828B8
:1030F000EDDB002010BD00007B226C616D705F6D08
:10310000756C223A2220202020227D00F60100202A
:103110001D00002010B5044612480078124948707E
:1031200012480068016810488847002818D00E48E7
:103130004078002803D1204600F07EFC0EE00A48CB
:103140004078022803D12046FFF7C0F906E0064880
:103150004078052802D12046FFF7A0FF012010BDCE
:103160000020FCE718000020F601002014000020D9
:1031700010B5044607490848FFF7ACFB002807D004
:1031800021460448FFF7D4F9002801D0012010BDE2
:103190000020FCE72A0200205E02002001460020F9
:1031A0007047000038B5044601202070FF20607091
:1031B0000E4800680168204688476078FF2813D0D1
:1031C000617868460170A178417032220849601C1C
:1031D000FEF7CAF8684600783030207368464078B9
:1031E00030306073012038BD0020FCE788000020EB
:1031F000AC3E00001CB50446084903C9019100908B
:103200002078022807DA207880006A461158601C6E
:10321000884701201CBD0020FCE70000CC3E0000D8
:1032200010B504462248816820468847207803006C
:10323000FFF796F808050B11171D242B32391D488E
:103240004068C007C00F60702EE01A484068C00692
:10325000C00F607028E0174840688006C00F60709B
:1032600022E0144840684006C00F60701CE011481E
:1032700040304068C004C00F607015E00D48403019
:1032800040688004C00F60700EE00A48403040681B
:103290004004C00F607007E00648403040680004FA
:1032A000C00F607000E000BF00BF607810BD00007C
:1032B000C0000020000D02400146002070470000C1
:1032C00010B504460348006801682046884700207E
:1032D00010BD0000F80000200146002070470000EB
:1032E00038B504461A480068C07801282DD12070EE
:1032F000FF206070174800680168204688476078A2
:103300006946087032221449601CFEF72DF86946A0
:1033100008786421FEF714F83030A0736946087805
:103320000A21FEF70DF805460A21FEF709F83031AB
:10333000E173694608780A21FEF702F830312174FA
:10334000002003490968C87000BF002038BD000094
:10335000480100203C010020D43E000010B5044686
:1033600003480068016820468847002010BD00001F
:1033700060010020014614484068C006C00F4001AB
:10338000114B5B689B06DB0F1B01C0180E4B5B6883
:103390005B07DB0FDB00C0180B4B5B681B07DB0F09
:1033A0009B00C018084B5B68DB079B0FC018064BDF
:1033B0005B689B07DB0FC018C2B23F2090430246F8
:1033C0004A70002070470000400D024030B50246B0
:1033D000012300211CE0C8000F4C205C002815D1FF
:1033E000C80000194078002810DD18465C1CE3B2C4
:1033F0001154C800084C0019457818465C1CE3B20B
:1034000015540020CC00044D64196070481CC1B2F2
:103410000429E0DB002030BDEA04002010B502469C
:10342000002116E0C8000D4B185C00280FD1C80021
:10343000C018407800280ADD1170C800C018407814
:1034400050700020CB00054C1B19587003E0481C3D
:10345000C1B20429E6DB00BF002010BDEA04002051
:1034600010B500210448FEF7CBFB002401E0601CEE
:10347000C4B2322CFBDB10BD0008004010B504467E
:10348000012C04D10B210020FEF700FB03E00B21EF
:103490000020FEF79BFA10BD10B5044603480068F3
:1034A000016920468847002010BD0000140000205C
:1034B00010B5044606480068C078012806D10020EF
:1034C00003490968C8700348FFF766FA002010BD79
:1034D000480000205E02002010B504460348006842
:1034E000016920468847002010BD000088000020A8
:1034F00010B5044606480068C078012805D10020B0
:1035000003490968C870FFF78DF8002010BD00005E
:10351000A800002010B50446034800680169204651
:103520008847002010BD0000D400002010B50446DC
:103530005E480068C07801287ED100205B49096898
:10354000C87000BFA6E05A49095C00294FD057490E
:1035500009688988002936DD01460831544A515CE2
:1035600000291CDD01460831515C491ECAB20146E2
:1035700008314F4B5A544F490A78410043184E497D
:10358000CA544C494B7841004118491C4A4A53548B
:1035900048498B7841004118891C535478E04749C9
:1035A0000A78410043184449CA5444494B784100C1
:1035B0004118491C404A535440498B7841004118F6
:1035C000891C535464E03E490A78410043183A4943
:1035D000CA543B494B7841004118491C364A535460
:1035E00037498B7841004118891C535450E02F49CA
:1035F00009688988002938DD014608312C4A515C68
:1036000000291EDD01460831515C491ECAB201463F
:103610000831274B5A5429490A7841004318264952
:10362000CA5426494B7841004118491C224A535438
:1036300022498B78410000E035E04118891C535441
:1036400026E01C490A78410043181B49CA5419490D
:103650004B7841004118491C174A535415498B783F
:1036600041004118891C535412E016490A78410060
:1036700043181149CA5413494B7841004118491C59
:103680000D4A53540F498B7841004118891C5354FB
:10369000411CC8B2102800DA55E70B4800684168A1
:1036A0000548401E8847002010BD0000040100208E
:1036B000B30500200B010020810500200801002037
:1036C0000E01002011010020F8000020014600201A
:1036D000704701460020704710B500240AE0A000A2
:1036E000064A10580169064888470548FEF760FFFA
:1036F000601CC4B2042CF2DB002010BD04000020CA
:10370000C301002070B505460024072412E0287884
:103710000121A1400840002805D0FC200721091BF9
:10372000A14A505404E0C0200721091B9E4A50546E
:10373000601E44B2002CEADA072412E06878012106
:10374000A1400840002805D0FC200F21091B964A03
:10375000505404E0C0200F21091B934A5054601EAE
:1037600044B2002CEADA072412E0A8780121A14033
:103770000840002805D0FC201721091B8A4A505414
:1037800004E0C0201721091B874A5054601E44B230
:10379000002CEADA00BF04218448FEF718FA00285A
:1037A000F9D0814800788149C86000BF04217F4872
:1037B000FEF70DFA0028F9D07B4840787B49C860B5
:1037C00000BF04217948FEF702FA0028F9D07648B4
:1037D00080787649C86000BF04217448FEF7F7F985
:1037E0000028F9D07048C0787049C86000BF042133
:1037F0006E48FEF7ECF90028F9D06B4800796B4968
:10380000C86000BF04216948FEF7E1F90028F9D03B
:10381000654840796549C86000BF04216348FEF7E8
:10382000D6F90028F9D0604880796049C86000BFA7
:1038300004215E48FEF7CBF90028F9D05A48C07938
:103840005A49C86000BF04215848FEF7C0F9002853
:10385000F9D05548007A5549C86000BF0421534843
:10386000FEF7B5F90028F9D04F48407A4F49C860B3
:1038700000BF04214D48FEF7AAF90028F9D04A48B4
:10388000807A4A49C86000BF04214848FEF79FF982
:103890000028F9D04448C07A4449C86000BF0421D8
:1038A0004248FEF794F90028F9D03F48007B3F4991
:1038B000C86000BF04213D48FEF789F90028F9D00F
:1038C0003948407B3949C86000BF04213748FEF7BA
:1038D0007EF90028F9D03448807B3449C86000BFA5
:1038E00004213248FEF773F90028F9D02E48C07B36
:1038F0002E49C86000BF04212C48FEF768F9002853
:10390000F9D02948007C2949C86000BF0421274814
:10391000FEF75DF90028F9D02348407C2349C860B0
:1039200000BF04212148FEF752F90028F9D01E48B3
:10393000807C1E49C86000BF04211C48FEF747F97F
:103940000028F9D01848C07C1849C86000BF04217D
:103950001648FEF73CF90028F9D01348007D1349BA
:10396000C86000BF04211148FEF731F90028F9D0E2
:103970000D48407D0D49C86000BF04210B48FEF78B
:1039800026F90028F9D00848807D0849C86000BFA2
:1039900004210648FEF71BF90028F9D00248C07D33
:1039A0000249C86070BD0000C30500200008004047
:1039B0000246107A002806DD00204870107A401E6A
:1039C0008870537BCB70002070473EB504460D468F
:1039D000E078A178491CC9B2029500910190237941
:1039E00000220421FF2000F003F800203EBD00006B
:1039F000FFB588B015461E46119F002402222146BD
:103A0000641C0C4842542246641C12998154094992
:103A100000221398049202922B4601970096069476
:103A2000039205910790F22209990898FEF7ECFF9E
:103A30000CB0F0BDD504002010B504460BA1601CED
:103A4000FEF77AFC0D4840783030A0720B48807841
:103A50003030E0720948C078303020730748C178B0
:103A60008078074A1154002010BD00007B226C6151
:103A70006D70223A22202020227D0000F6010020D5
:103A80001D0000203EB504460D46E078A178491C93
:103A9000C9B20295009101902079012300220321EF
:103AA00000F002F800203EBDFFB588B015461E4666
:103AB000119F002400222146641C0C4842542246D7
:103AC000641C1299815409490022139804920292AD
:103AD0002B460197009606940392059107900122C8
:103AE00009990898FEF790FF0CB0F0BDD5040020AE
:103AF00070B5044617A1601CFDF75AFC002826D0BB
:103B000017A1601CFDF754FC0646B07830281DDB79
:103B1000002014494870FF25B0783038C5B2082D10
:103B200013DC084685701048405D002801D1012152
:103B300000E000210B48C1700C4801780948017170
:103B40000B48006841680748884700BF00BF002055
:103B500070BD00007B22627574746F6E223A220081
:103B60003A220000F60100201D000020180000206D
:103B70001400002038B504216846FFF723F801241B
:103B80002046FDF7ABFE002168460170042141701C
:103B9000032181700C21C170FEF7C8F90720FEF7E0
:103BA0004FFA01210420FEF741F80420FEF766FADF
:103BB000044800F08FF800F0ABF801210620FDF773
:103BC000B1FD38BD80BB000070B5002418E0A00036
:103BD0000D4A105801680D488847002509E0AC429D
:103BE00005D0A800084A1058416808488847681C52
:103BF000C5B2042DF3DB0548FEF7DAFC601CC4B245
:103C0000042CE4DB002070BD04000020C301002070
:103C10000246002070471CB506216846FEF7D2FF19
:103C200001211C20FEF71EFA0021684601706A4639
:103C300009210020FDF7D8FE012209210020FDF70F
:103C40001BFF0121684601706A460A210020FDF72A
:103C5000CBFE01220A210020FDF70EFF002168465D
:103C6000017081706A460B210020FDF7BDFE0B211B
:103C70000020FDF7ABFE1CBD1FB510216846FEF706
:103C8000A1FF01210020FEF7EDF9402168460170F7
:103C900000214180042141704B21C9010391012180
:103CA00049028180FEF732F90290694601208007BF
:103CB000FEF78AFA002101208007FEF74FFA002163
:103CC00001208007FEF769FA012203210620FDF793
:103CD000EBFC1FBD10B50446601E0949884201D99E
:103CE000012010BD601E074948610321081FFEF72F
:103CF00045FB002003498861072008610020F0E7A8
:103D0000FFFFFF0000E000E010B5FEF7C9FA10BDAC
:103D100010B501210F20FEF7A5F90B210020FEF7B9
:103D2000C7FAFEF7DBFA10BD10B504462046FEF7D1
:103D300017FD2046FEF794FF002010BD10B5044685
:103D400007492046FEF722FC05480079044908701F
:103D500004480068416802488847002010BD000000
:103D60002A0200203C00002070B5044600250021F6
:103D700001208007FEF7FDF90120FFF77FFB0A20F5
:103D8000FEF730FF00BF07E0601C415D01208007A7
:103D9000FEF768FA681CC5B22078A842F4DC00205F
:103DA000FFF76CFB0A20FEF71DFF002101208007B2
:103DB000FEF7D4F9002101208007FEF7EEF900207C
:103DC00070BD014600207047014600207047014643
:103DD0000020704710B504462046FEF7C9FC204677
:103DE000FEF774FE002010BD10B504461022611CC1
:103DF0000548FDF7B9FA2078012803D103480449A2
:103E000009688880002010BDB305002088130000D9
:103E10000401002070B50546FFF722FB72B60024AE
:103E20000DE061006218691C5018FFF76BFC61001F
:103E30006218691C5018FFF765FC601CC4B2082C9E
:103E4000EFDB62B6002070BD0146002070470146DE
:103E5000002070470146002070470000853A0000AE
:103E6000CB3900000000000000000000000000004E
:103E70000000000000000000B139000085300000A3
:103E8000B3240000C92C0000113C00008530000064
:103E9000012F0000ED2E00002F2F0000292F000021
:103EA000352F0000F92E0000F32E00007B226275F2
:103EB00074746F6E223A22202020227D00000000C0
:103EC000000000000000000000000000CD330000F2
:103ED0001D3400007B22645F737769746368223A43
:103EE00022202020227D00000000000000000000B1
:103EF0000000000000093D0000127A000024F400D8
:103F00004086510100366E010080009620000000BE
:103F1000170000001B00000050460000E0220200D5
:103F200018000000F0000000E8030000040000009A
:103F300003000000543F000000000020900100003A
:103F4000E4150000504000009001002068080000C7
:103F50007C24000041228C14204C011B20E4082A00
:103F6000280C1904F20123153123293D23D12C23D8
:103F70003D2F2399341A7428811A400C1A71241A7F
:103F80003D241AE9241A55241AB124136DAC13FFE9
:103F90000A922623CF681A9D281A69281B012D082A
:103FA0001928411AAC401AA5181AC3181A11181A60
:103FB00071181AD940811AA2201AF5201AC9201A9C
:103FC00029201A89201AF1201B21325419141A2F82
:103FD000145ABD4C1A14CC811AD8381AB9241AD5DF
:103FE000241ACD241AC5242315359A28242AFCC85E
:103FF000148080801280140404041B04C1301AE968
:10400000301AE5301ADD301A2D301AD91423153E36
:104010001AFD146329309A64441A400C1AE1241AD8
:104020004924235D2E1A312423CD361A7818235DB6
:10403000331A4F181A75181A65181AD3181A7514E6
:104040001A55141A8D145A6B501113093D000000B3
:04000005000012C124
:00000001FF
