:020000040000FA
:10120000C00F0020D5120000F11200008D1B00005D
:1012100000000000000000000000000000000000CE
:10122000000000000000000000000000F5120000B7
:101230000000000000000000F7120000F11C000098
:101240009D1B0000A51B0000AD1B0000B51B00008E
:10125000BD1B0000C51B0000CD1B0000D51B0000FE
:10126000DD1B0000E51B0000ED1B0000F51B00006E
:10127000FD1B0000051C00000D1C0000151C0000DB
:101280001D1C0000251C00002D1C0000351C00004A
:101290003D1C0000451C00004D1C0000551C0000BA
:1012A0005D1C0000651C00006D1C0000751C00002A
:1012B0007D1C0000851C0000FB1200008D1C00003E
:1012C0000348854600F07CF9004800473B160000C3
:1012D000C00F002009480A4A002100A1814200D91C
:1012E00002440848084A0260084880470848004706
:1012F000FEE7FEE7FEE7FEE7FEE7FEE70000002070
:101300000000000008ED00E0001200009D21000038
:10131000C112000030B50B460146002020220124F6
:1013200009E00D46D5409D4205D31D469540491B19
:101330002546954040191546521E002DF1DC30BD62
:1013400070B500242546002801DA01244042002916
:1013500001DA01254942FFF7DDFFAC4200D04042EF
:10136000002C00D0494270BD03460B439B0703D0BD
:1013700009E008C9121F08C0042AFAD203E00B785A
:101380000370401C491C521EF9D27047D2B201E0D2
:101390000270401C491EFBD270470022F6E710B5D0
:1013A00013460A4604461946FFF7F0FF204610BDD3
:1013B00030B505462A460B4610781C78521C5B1C3B
:1013C000002801D0A042F7D0002C03D0002802D082
:1013D0006D1CEFE7284630BDF8B502464A40D40FF1
:1013E00042004B0052085B089A4202D2024608466D
:1013F00011464A0023D0C30D4A00DDB2120EAD1AC9
:10140000202D35DA49020126490AF6058A19002CF1
:1014100000D0524220214F1B1146B9402A411018DA
:10142000C20D9A4221D0002C17D0012D08DCDA051C
:10143000801AD20F8019D207DBB200F087F8F8BD0E
:10144000DA05801A012340001B06C01880185A4292
:101450008018CA0F1043490007E04908C20711432A
:10146000DA05801A80194008801800F067F8F8BD86
:1014700061000122511A001BF7E70122D2075140F7
:10148000AAE70122D2075040A6E770B502464A40BB
:10149000D50F40004A00ED0740085208002814D03C
:1014A000002A12D0C40DD30D41020120C005520202
:1014B000490A520AE41A091812187D34914201D3DC
:1014C000641C00E04900002C01DA002070BD0023FC
:1014D000914201D3891A0343400849000028F7D1FB
:1014E00000290AD0914202D10121C90705E09142A9
:1014F00001D2012101E00121C943E005C0184019D2
:1015000000F01CF870BD10B500229623114600F0C3
:101510001DF810BD410040020122400AD205090E0B
:1015200080187F2901DA00207047962903DC962273
:10153000511AC8407047963988407047002904DA2C
:10154000401C490001D140084000704770B400249D
:10155000050C05D11024000402D1002921D011244A
:10156000050E01D100020834050F01D10001241D30
:10157000850F01D18000A41C002801DB4000641C01
:10158000002908D020252E1B0D46F540A14000D093
:1015900001212943084301061B1B000ADB1D02D55C
:1015A000002070BC7047DB05181880180029F8DA95
:1015B000401C4900F5D170BC400840007047000055
:1015C000064C0125064E05E0E36807CC2B430C3C96
:1015D00098471034B442F7D3FFF776FEC4460000B4
:1015E000E446000070B58C180578401C6B075B0F53
:1015F00001D10378401C2A1106D10278401C03E077
:1016000006780E70401C491C5B1EF9D12B0705D4CF
:101610000023521E0DD40B70491CFAE70378401CBE
:10162000CB1A921C03E01D780D70491C5B1C521EE6
:10163000F9D5A142D8D3002070BD10B500F0AEFDA1
:1016400002F004F8002010BD70B505460C46A01E3F
:10165000C1B2284600F009F80646A01E285CB04238
:1016600001D1012070BD0020FCE730B502460B46D9
:10167000002013E01478521C604000210CE080240C
:101680000440002C04D0440007256C40E0B201E087
:101690004406200E4C1CE1B20829F0DB1C465D1EFE
:1016A000EBB2002CE6D130BD70B504460E461546AF
:1016B0002046002805DBC206D20E01219140144AC3
:1016C000116000BF3146204600F0F2FE012D0ED120
:1016D0002046002809DB00BF00BFC206D20E012150
:1016E00091400C4A116000BF00BF00BF0FE02046D0
:1016F00000280ADBC206D20E01219140054A803241
:101700001160BFF34F8FBFF36F8F00BF00BF70BD7D
:1017100080E200E000E100E010B5C046C046C046EF
:10172000C04610BDF0B58BB005460E460024FF2024
:101730000A9000200990202101A8FFF72EFE284FD3
:10174000012D0ED0022D0CD0042D0AD0062D08D06C
:10175000082D06D00C2D04D00420099009980BB058
:10176000F0BD1F48006A012149028843710201222D
:101770005202114008431A490862002407E0A00001
:10178000184908586843A10001AA5050641C082C4D
:10179000F5D30C2D01D1FF20029000241CE0FF2086
:1017A0000A9011E00A98411E0A9100280AD00E48BA
:1017B0000B49C8620D48C862A00001A90858A100E1
:1017C000785001E00720CAE7A0003858A10001AA1C
:1017D00051588842E6D1641C082CE0D30998BEE732
:1017E000000002409C4600005A5A0000A5A50000D7
:1017F00003480449C8620448C8620020086370476F
:101800005A5A000000000240A5A5000008B5024693
:101810000023FF2000902548824202D90423184665
:1018200008BDFF20009006E00098411E00910028AE
:1018300001D10920F4E71E48006AC006C00F002845
:10184000F2D100F03BF8FF20009012E00098411E1A
:10185000009100280BD017481549C8621648C86285
:101860000846006A80088000801C086201E00920A8
:10187000D6E70F48006A8007800F0228E6D10020D3
:101880001070FF20009006E00098411E0091002893
:1018900001D10920C4E70648006AC006C00F00282D
:1018A000F2D1FFF7A5FF1846BAE70000FFFF0000DE
:1018B000000002405A5A0000A5A50000044805494E
:1018C000C8620548C8620020C04308637047000032
:1018D0005A5A000000000240A5A5000010B50146BC
:1018E0000020084A084BDA62084ADA621A46126A8D
:1018F0000C239A438B000C2423401A43024B1A6298
:1019000010BD00005A5A000000000240A5A50000CA
:1019100018B502460B460024FF200090244882425E
:1019200002D90424204618BDFF20009006E000984C
:10193000411E0091002801D10920F4E71D48006AEA
:10194000C006C00F0028F2D1FF20009012E00098DE
:10195000411E009100280BD017481649C86217484D
:10196000C8620846006A80088000401C086201E0E6
:101970000920D8E70F48006A8007800F0128E6D1C8
:10198000FFF79CFF1370FF20009006E00098411EB7
:101990000091002801D10920C5E70648006AC00669
:1019A000C00F0028F2D1FFF723FF2046BBE700005D
:1019B000FFFF0000000002405A5A0000A5A50000E9
:1019C00018B502460B460024FF20009024488242AE
:1019D00002D90424204618BDFF20009006E000989C
:1019E000411E0091002801D10920F4E71D48006A3A
:1019F000C006C00F0028F2D1FFF760FFFF20009063
:101A000012E00098411E009100280BD0164815499D
:101A1000C8621648C8620846006A80088000401CF8
:101A2000086201E00920D6E70E48006A8007800FAF
:101A30000128E6D11360FF20009006E00098411EC7
:101A40000091002801D10920C5E70648006AC006B8
:101A5000C00F0028F2D1FFF7CBFE2046BBE7000005
:101A6000FFFF0000000002405A5A0000A5A5000038
:101A700002461068C840C007C00F704770B50446E2
:101A80000D46044960180122294600F003F90020A0
:101A900070BD0000140D024070B504460D460349A8
:101AA00060182946FFF7E4FF70BD0000040D0240F6
:101AB00070B504460E4615461E4960180022314690
:101AC00000F0E8F800201C496118B20088502A781C
:101AD00018490C396018314600F0DCF86A7815496D
:101AE00010316018314600F0D5F8AA781149143148
:101AF0006018314600F0CEF8EA780E4918316018C7
:101B0000314600F0C7F82A790A4920316018314679
:101B100000F0C0F8094880680121C9038843697949
:101B2000C9030122D2031140084304498860002000
:101B300070BD00000C0D0240000C0240000F02407E
:101B400010B50346024818188C000251002010BD41
:101B5000000C024070B504460D460449601801228D
:101B6000294600F097F8002070BD0000100D0240DB
:101B700070B504460D46164603496018324629469C
:101B800000F088F8002070BD080D024008B5002064
:101B9000009000BF00980028FCD008BD10B5C046DA
:101BA000C04610BD10B5C046C04610BD10B5C046F9
:101BB000C04610BD10B5C046C04610BD10B5C046E9
:101BC000C04610BD10B5C046C04610BD10B500F0EF
:101BD00005FB10BD10B500F01BFB10BD10B5C046D5
:101BE000C04610BD10B5C046C04610BD10B5C046B9
:101BF000C04610BD10B5C046C04610BD10B5C046A9
:101C0000C04610BD10B5C046C04610BD10B5C04698
:101C1000C04610BD10B5C046C04610BD10B5C04688
:101C2000C04610BD10B5C046C04610BD10B5C04678
:101C3000C04610BD10B5C046C04610BD10B5C04668
:101C4000C04610BD10B5C046C04610BD10B5C04658
:101C5000C04610BD10B5C046C04610BD10B5C04648
:101C6000C04610BD10B5C046C04610BD10B5C04638
:101C7000C04610BD10B5C046C04610BD10B5C04628
:101C8000C04610BD10B5C046C04610BD10B5C04618
:101C9000C04610BD10B5012A05D1036801248C404F
:101CA0002343036004E0036801248C40A3430360E2
:101CB00010BD024690680840002801D001207047FE
:101CC0000020FCE702460020106008784B7818439B
:101CD0008B781843CB7818434023184310600020BA
:101CE000906070470246D1600020704741607047A5
:101CF00010B500F001F810BD10B504480088401C74
:101D00000249088000F03CFC10BD00009401002056
:101D1000F8B505460C46002700F074FB002C01D0F6
:101D2000012000E0002004465148066A2B0000F024
:101D300075FB050417394D7298004D48006840083E
:101D40004000E107C90F08434949086000BF002C63
:101D500005D04748C0680005C00F0028F7D082E0D2
:101D60004348006A01210907884340184049086236
:101D70004048C068032108433E49C8603C480068A9
:101D8000022188436100022211400843384908605B
:101D900000BF002C05D0364800694006C00F00285F
:101DA000F7D060E03248006804218843A100042293
:101DB000114008432E49086000BF002C05D02C4874
:101DC0004069C004C00F0028F7D04CE02848006AE2
:101DD00001210907884340182549086225484038F1
:101DE000C06803218903084322494039C86020485C
:101DF000006808218843E1000822114008431C497B
:101E0000086000BF002C05D0194880694006C00F4B
:101E10000028F7D027E01648006A0121090488430A
:101E20004018134908621448006840084000401CEC
:101E300011490860142000F079FF0D480068102156
:101E4000884321011022114008430949086000BF5E
:101E5000002C05D00648C06B4003C00F0028F7D007
:101E600001E0042700BF00BF014806623846F8BD04
:101E700000200040C00D02400024004030B589B071
:101E800000241422564904A8FFF76EFA544814306F
:101E90000068039000200090019002905148018852
:101EA000684601814F4841886846C1804D48818815
:101EB000684681804B48C188684641804948203047
:101EC000018868460180484800680006450F2B00DD
:101ED00000F0A4FA05042E303E4178004248C06864
:101EE0004005400D69460989884201D1089C1EE0E1
:101EF0003D48C0684005400D6946C988884201D107
:101F0000079C14E03848C0684005400D6946898840
:101F1000884201D1069C0AE03348C0684005400D64
:101F200069464988884201D1059C00E0049C4BE049
:101F30002E4C49E0684600882B4949698905890D7E
:101F4000884202D16846C48901E0684684893BE042
:101F50000124E40338E02448C06B8007800F032885
:101F600029D1684600892049C9684905490D884238
:101F700001D1089C20E06846C0881B49C968490512
:101F8000490D884201D1079C16E0684680881649B1
:101F9000C9684905490D884201D1069C0CE0684694
:101FA00040881149C9684905490D884201D1059CFD
:101FB00002E0049C00E00D4C0B48C06BC005000F14
:101FC000444301E0002400BF00BF0748006840050B
:101FD000410F2046C8400446204609B030BD0000ED
:101FE00084460000000C1000002000400048E8017A
:101FF00010B50024FFF742FF044604480068C004FF
:10200000810F2046C8400446204610BD00200040F5
:102010001EB50146002200200090019002903D482C
:102020000388684603813B4843886846C380394833
:102030008388684683803748C388684643808878A9
:1020400003282DD168460089334BDB685B055B0DA7
:10205000984202D1C878022820DC6846C0882E4BFE
:10206000DB685B055B0D984202D1C878022815DC5D
:1020700068468088284BDB685B055B0D984202D17F
:10208000C87803280ADC68464088234BDB685B0578
:102090005B0D98420CD1C878062809DD06201EBDCC
:1020A000C8781E4B58431E4B984201D90620F6E7CC
:1020B0001948C06B03235B0398430B785B0303242D
:1020C000640323401843144BD8631846C06B1C2389
:1020D00098434B789B001C24234018430E4BD86335
:1020E0001846C06BFF23E1339843CB785B01FF2494
:1020F000E13423401843084BD8631846C06B80086E
:1021000080008B789B079B0F1843034BD8631046C6
:10211000C5E70000000C1000002000400048E80166
:10212000006CDC0210B501460020064AD26B072382
:10213000DB039A43CB030724E40323401A43014BF8
:10214000DA6310BD0020004070B504460D462A46F3
:1021500021460248FFF79EFD002070BD2020004070
:1021600070B504460025264600F04CF90648006884
:10217000E02188437101E0221140084302490860D0
:1021800000F004F8284670BD0020004010B5FFF7AD
:1021900075FE0149086010BDAC01002010B50D4965
:1021A00049888805800D0C494969890A89020143DB
:1021B000094A51610749203909894805400D1146EE
:1021C000C968C90AC9020143D160FFF7DFFF00F007
:1021D0000BF910BD200C10000020004010B50021AC
:1021E0000120800700F055F800280DD000210120C3
:1021F000800700F025F80120800700F0A1F80446D0
:102200000249204600F018FC10BD00000007002025
:1022100010B50021084800F03CF800280BD0002140
:10222000054800F00DF8044800F08AF80446034918
:10223000204600F001FC10BD000100400007002016
:1022400070B504460D460022294620461430FFF79B
:1022500021FD002070BD70B504460D4600222946C0
:10226000201DFFF717FD002070BD70B504460D4618
:1022700001222946201DFFF70DFD002070BD70B51D
:1022800004460D4601222946201DFFF703FD0020CC
:1022900070BD70B504460D46002629462046103014
:1022A000FFF7E6FB0646304670BD0000F0B585B08E
:1022B00005460C460127214903C9049103900020DB
:1022C0000290002C02D1042005B0F0BD002068600F
:1022D000608861780843A1880843217808436860D2
:1022E0002078402802D02078C02824D1A088C117A7
:1022F000C90D09184912890003AA515A8EB2E16822
:10230000B1400846FFF7FFF80190A068FFF7FBF81F
:1023100000900199FFF7B9F802903F210906029851
:10232000FFF75AF80190FFF7F5F880B2A861042191
:102330002846FFF79AFF00273846C5E7BC4600004D
:1023400001460868C0B2704770B504460D4600BF2C
:1023500003212046FFF79DFF0028F9D02068000ADE
:102360000002E9B20843206000BF01212046FFF7C8
:1023700090FF0028F9D001212046FFF761FF0020DF
:1023800070BD00001E2002490860E120086070470F
:10239000800F004030B503460C460125204600F072
:1023A00017F806484068202188435901202211402F
:1023B0000843024948600025284630BD800F004090
:1023C0001E2002490860E12008607047800F00402D
:1023D00004494968090909010207120F1143014A1A
:1023E00051607047800F00400549086A096A012260
:1023F000120791438918024A116211460862704718
:102400000020004002480349886003488860704704
:102410005A5A000000200040A5A5000030B47446C0
:10242000641E2578641CAB4204D3635D5B00E31833
:1024300030BC18471D46F8E710B5002819DB1A4ACA
:1024400003231B02D21883089B00D2588307DC0E9B
:10245000FF23A3409A438B071B0E8407E40EA3407F
:102460001A43114B032424021B198408A4001A5197
:1024700018E00E4A03071B0F083B9B089B00D2582D
:102480008307DC0EFF23A3409A438B071B0E8407B0
:10249000E40EA3401A43054B0407240F083CA4088C
:1024A000A4001A5110BD000000E100E01CED00E0A6
:1024B00010B5002819DB1A4A03231B02D21883081F
:1024C0009B00D2588307DC0EFF23A3409A438B075F
:1024D0001B0E8407E40EA3401A43114B032424026D
:1024E0001B198408A4001A5118E00E4A03071B0F99
:1024F000083B9B089B00D2588307DC0EFF23A340B8
:102500009A438B071B0E8407E40EA3401A43054B26
:102510000407240F083CA408A4001A5110BD0000B1
:1025200000E100E01CED00E002E008C8121F08C155
:10253000002AFAD170477047002001E001C1121F44
:10254000002AFBD1704710B50446002020703221CC
:10255000601CFEF722FF10BD10B5002407E0A000AC
:10256000054A1058816805488847601CC4B2052C8C
:10257000F5DB002010BD0000980100205B0B00205F
:1025800010B5002407E0A000054A1058C1680548AE
:102590008847601CC4B2052CF5DB002010BD00008C
:1025A00098010020F60A002010B501F035FE01F078
:1025B000B9FB002010BD00001CB5044637A1601C0B
:1025C000FEF7F6FE002867D03320005D35494870DD
:1025D0000846C07D002826D1012168460170314897
:1025E0004178684641700221817008232EA20321A0
:1025F00000F030FC0121684601702A4841786846A5
:10260000417028484178801C405C002801D101209D
:1026100000E0002069468870092325A2032168464E
:1026200000F018FC38E01F48C07D012834D11D4857
:102630004178801C405C002801D1012100E000218C
:1026400018484278801C8154012168460170154861
:102650004178684641703320015D1248801C415C1E
:1026600068468170082310A2032100F0F3FB0121CA
:10267000684601700B4841786846417009484178C6
:10268000801C415C68468170092309A2032100F087
:10269000E1FB00F013F800BF1CBD0000627574740C
:1026A0006F6E00001D0600206C67635F726762003A
:1026B0006C67635F636F6D6D000000001CB50024E4
:1026C00000200CE01349095C042906DA11490C3991
:1026D0000A5C0C310B5C091FCA54411CC8B20828A3
:1026E000F0DB002009E00B49091F095C012902D138
:1026F00081402143CCB2411CC8B20428F3DB022143
:10270000684601704470082303A2032100F0A2FB75
:102710001CBD00002B0600206C67635F6F757400A2
:1027200010B5002489E0204600F06AFE002860D041
:10273000E00044494018C0884349884212DAE0006A
:102740004049085C012808D1E0004018C088401CBE
:10275000E1003C4A8918C88004E00020E100394AC1
:102760008918C880E00037494018C0880A2810DD61
:10277000E000085C01280CD1601C3449087000207E
:10278000E100304A5054E10089188880E10089183E
:10279000C880E0002B494018C08805284BDDE000C8
:1027A00040188088002846DDE000401880882649CF
:1027B000884205D10C20E100224A8918487012E0B5
:1027C000E000204940184078401CE1001D4A89186B
:1027D0004870E000114640184078052803DD0520C8
:1027E000E100891848700020E100164A89188880A5
:1027F00021E0E0001349401880881349884208DA34
:10280000E000104940188088401CE1000D4A8918FA
:102810008880E0000B494018808805280BDDE00027
:10282000085C012807D00120E100064A505400202E
:10283000E1008918C880601CC4B2082C00DA72E775
:1028400010BD000076090020B80B0000B400002085
:1028500070B504460D46122D01D2002070BD2078BF
:102860006D282ED16078AC282BD1A079262828D1CC
:10287000207CA62825D1607CDA2822D1122012499A
:102880000870122211491048401CFEF76DFD1048D7
:10289000006841680C48884711200002FEF7B6FF27
:1028A0000C4911200002FFF78BF800BFBFF34F8FD8
:1028B00009480A49C860BFF34F8F00BF00BF00BF7F
:1028C000FDE70020CAE700009A0600207000002003
:1028D00048000020230189670400FA0500ED00E0AC
:1028E00070B505460C464120C000005D092819DA84
:1028F0004121C900095D3222514308190A49611872
:10290000FEF732FD4120C000005D41002046FF304F
:10291000F53045524120C000005D401CC1B241204D
:10292000C000015570BD00000E02000070B50446E5
:102930000D464120C000005D002859DD32212D48A0
:102940002018FEF72AFD3221092080012018FEF709
:1029500024FD4120C000005D401E32225043011979
:10296000092080012018FEF7FFFC32210920800198
:102970002018FFF76DFF4120C000005D401E4100A0
:102980002046FF30F530405A0921890161184886F8
:102990004121C900095D491E3222514308191146DF
:1029A000FEF7FBFC00214120C000005D401E4200FC
:1029B0002046FF30F53081524120C000005D401EAE
:1029C000C1B24120C0000155092080012018408E6D
:1029D00028703222092080012118681CFEF7C4FCEF
:1029E0003221092080012018FEF7D7FC012070BD9C
:1029F0000020FCE70E02000010B504460D48005B05
:102A0000401C81B20B480153005B0A2810DB0A21ED
:102A100008480153801C005B002809DD83218900E0
:102A2000085B2146FFF75CFF0021832080000153F3
:102A300010BD00000A02000010B50023094A5352DD
:102A4000921C525A312A0BDA83229200535A525A5C
:102A5000521C94B2832292005452921C8A18D05471
:102A600010BD00000A02000030B59BB005460C46C0
:102A70006846047122462946401DFEF775FC03484E
:102A8000416801A888471BB030BD000084000020C9
:102A90007CB504465AA1601CFEF78AFC00281DD0B4
:102AA0003320005D01281AD13520015D3420025DFC
:102AB000574881540121684601703420015D684601
:102AC00041703420015D5248415C684681700823A2
:102AD00050A2032100F0BEF9FFF7F0FD8EE0332095
:102AE000005D022828D13520015D3420025D484870
:102AF000815400200FE03421095D01228240114001
:102B0000002903D1002242490A5402E0012240492F
:102B10000A54411CC8B20828EDDB02216846017046
:102B20003420015D6846417008233AA2022100F07A
:102B300091F9FFF7C3FD61E03320005D0F2817D145
:102B40000025002008E03249095C012902D18140BA
:102B50002943CDB2411CC8B20828F4DB0F216846D6
:102B60000170457009232DA2022100F073F945E0A0
:102B70003320005D03281BD13420005D04283DDA9A
:102B80003520015D3420025D214808308154012147
:102B9000684601703420015D684641703520015D52
:102BA00068468170082320A2032100F053F925E034
:102BB0003320005D042821D1002011E03421095D7B
:102BC000012282401140002904D10022104908311D
:102BD0000A5403E001220E4908310A54411CC8B2CC
:102BE0000428EBDB0221684601703420015D684651
:102BF000417008230CA2032100F02CF97CBD0000D9
:102C0000636F6D6D756E69636174696F6E0000004E
:102C10001F0600206C67635F726762006C67635F0A
:102C2000636F6D6D000000006C67635F6F7574000B
:102C3000FFB50F9F109D0024302F4CDA7E222046D6
:102C4000611CCCB22A542146621CD4B2009868544C
:102C50002146621CD4B20198685400222046611CAF
:102C6000CCB22A542146621CD4B202986854214640
:102C7000621CD4B2039868542146621CD4B20998ED
:102C800068542146621CD4B20A9868542146621CDA
:102C9000D4B20B9868542146621CD4B20C98685484
:102CA0002046621CD4B20D992954002605E00E98E6
:102CB000805DA1196854701CC6B2BE42F7DBE019F2
:102CC000C4B2A01CE87021462846FEF7CEFC285569
:102CD0007D21601C2954A01CC0B204B0F0BD10B509
:102CE000044665212046FEF758FB10BD10B50A4684
:102CF0000146002900D110BD02E000230B70491CE1
:102D00001346521E002BF8D100BFF4E710B5002186
:102D100009E0002203E05C1CE3B2541CE2B2642A26
:102D2000F9DB4C1CA1B28142F3DB10BD70B5054646
:102D300011481249486100208861052008610FE0B0
:102D400000200E4988610E490E480068FEF7E2FA3D
:102D5000012109060C1A00BF08488069A042FBD86F
:102D600028466D1E0028EBD1044800694008400049
:102D70000249086170BD0000FFFFFF0000E000E0B5
:102D8000A0860100AC01002010B5044607A1601C1C
:102D9000FEF70EFB002807D03320005D05490870C0
:102DA000084600780449087010BD00006469616C31
:102DB000000000001D06002028000020002013490C
:102DC0004968C907890E114A52689207D20F120149
:102DD00089180E4A52685207D20FD20089180B4A3E
:102DE00052681207D20F92008918084A5268D20618
:102DF000D20F52008918054A52689206D20F8918DC
:102E0000C8B23F218143084670470000400D024090
:102E10001CB501211C20FFF797F9012168460170BC
:102E2000417081700021C170017101214171002444
:102E300008E0064A115D064A105D6A46FEF738FE54
:102E4000601CC4B2062CF4DB1CBD0000EC000020AA
:102E5000F2000020F8B504460D4616461F462A46E5
:102E600021460948FEF780FA3A463146064832388C
:102E7000FEF77AFA04493339044801F044F902486C
:102E80003338FFF72CFFF8BDEB050020C50100200B
:102E900070B504460D462946204601F06DF92946D5
:102EA000204601F08FF970BD70B50F242403002572
:102EB00001210620FEF736FC002006E02178304A8A
:102EC00012681154641C411CC8B21A28F6D30020A1
:102ED00007E02B490968095C814200D00125411CAB
:102EE000C8B20428F5DB012D35D1FF202549087132
:102EF000002124484171FF21817100202149C871BE
:102F0000FF212048017241720A201E498872002167
:102F10001C48C1720A21017300201A4948730A2112
:102F200018488173C173002004E016491031085419
:102F3000411CC8B20828F8DB002003E011490854FE
:102F4000411CC8B20428F9DB0A200E49087600208B
:102F5000487600F01BF80F242403002006E02178B7
:102F6000074A12681154641C411CC8B21A28F6D3CF
:102F70001A2204490448FEF7F7F901F0FBF970BD85
:102F800050010020DC0A0020C20A002010B500BF5A
:102F90000F200003FEF73AFC0028F9D16420FFF768
:102FA000B5FE002003E00B490854411CC8B20428B8
:102FB000F9DB002409E0084A1268115D0F221203B0
:102FC000A018FEF7A5FC601CC4B21A2CF3D301F0C4
:102FD000D1F910BDDC0A00205001002010B500F02E
:102FE000EDF900F0E1FBFFF713FF10BD10B57E48CF
:102FF00000782D2804DA7C480078401C7A49087053
:10300000794800782D286EDA774800780300FFF7BA
:1030100005FA2CDA17292D3135393D4145485A5EDC
:1030200062666B6F73777ADADA84DADA8EDADA98D4
:10303000DADAA3DADAAEDADAB9DADAC4DADACFDA95
:1030400000206A49C8710021684801724172FF205E
:1030500066490871FF21654841718171002000F0C7
:10306000EBFAB1E0012000F0E7FAADE0022000F059
:10307000E3FAA9E0032000F0DFFAA5E0042000F065
:10308000DBFAA1E0052000F0D7FA9DE0062000F071
:10309000D3FA99E0072000F0CFFA95E000F0B4FAF7
:1030A00092E000205149C8710021504801724172DC
:1030B000FF204E49087100214C4841718171002068
:1030C00000F0BAFA80E0012000F0B6FA7CE00220BD
:1030D00000F0B2FA78E0032000F0AEFA74E00420C9
:1030E00000F0AAFA70E070E0052000F0A5FA6BE0AD
:1030F000062000F0A1FA67E0072000F09DFA63E0E7
:1031000000F082FA60E0FF2038490871002137485A
:103110004171817100F084FA56E0642033490871EE
:10312000002132484171817100F07AFA4CE014209C
:103130002E49087100212D484171817100F070FA0B
:1031400042E0002029490871FF21284841710021EF
:10315000817100F065FA37E000202449087164218C
:10316000224841710021817100F05AFA2CE00020C0
:103170001E49087114211D4841710021817100F020
:103180004FFA21E0002019490871002117484171C8
:10319000FF21817100F044FA16E000201349087104
:1031A0000021124841716421817100F039FA0BE06D
:1031B00000200E49087100210C48417114218171D1
:1031C00000F02EFA00E000BF0DE00948007800286A
:1031D00009D101200649087000F016FA1A220549A3
:1031E0000248FEF7C1F810BD39010020DC0A0020BA
:1031F00038010020C20A00201CB504460AA1601C48
:10320000FEF7D6F800280DD03320005D012809D143
:10321000032069460870082306A201216846FFF7CB
:1032200019FE00BF1CBD0000696E667261726564A4
:10323000000000006C67635F726762000146FF2058
:10324000044A50701046C07D012801DD0020D07571
:10325000002070471D06002010B504460348006892
:10326000816820468847002010BD0000240000200F
:1032700010B504460348006881682046884700204E
:1032800010BD00004800002010B5044600F0E8FF23
:1032900001F016F8002010BD10B504460348006880
:1032A000816820468847002010BD0000980000205B
:1032B00010B50446FFF792FE002010BD10B504467D
:1032C00003480068816820468847002010BD000040
:1032D000F800002010B504460A480078052802DAF4
:1032E000052008490870074800783C2802DD3C208A
:1032F0000449087004480068816820468847002017
:1033000010BD000010010020140100203EB504464D
:1033100001210620FEF718FF1021684601720221E4
:1033200041720421C1720021817202A90F48FEF787
:10333000C9FC06216846FFF7D9FC01211C20FEF7D5
:1033400003FF00216846417001706A460721002092
:10335000FEF7AEFB012207210020FEF7F1FB002162
:103360000248FEF7C3FC00203EBD000000080040FC
:1033700010B504460348006881682046884700204D
:1033800010BD00005C0100201CB5044601211C207A
:10339000FEF7DAFE0121684601704170002181705C
:1033A0000121C17000210171012141716A4607218B
:1033B0004020FEF77DFB00201CBD00001CB5012154
:1033C0001C20FEF7C1FE012168460170417081702A
:1033D0000021C170017101214171002408E0064AF9
:1033E000115D064A105D6A46FEF762FB601CC4B2BE
:1033F000082CF4DB1CBD0000D4000020DC00002001
:1034000070B504460025082C06DA044A115D044A0A
:10341000105DFEF741FB0546284670BDD400002034
:10342000DC00002010B504460A4800680088401CF3
:103430000849096808800749096808880A21FDF7D2
:103440007FFF002903D1012002490968C8700020CC
:1034500010BD00000C00002010B5044603480068B1
:10346000C16820468847002010BD000024000020CD
:1034700010B50446012004490968C8700348FFF7E5
:10348000BBFA002010BD00005400002000070020FF
:10349000014600207047000010B50446034800684C
:1034A000C16820468847002010BD00009800002019
:1034B00010B504460A4800680088401C084909689D
:1034C00008800749096808880A21FDF739FF0029A3
:1034D00003D1012002490968C870002010BD000016
:1034E000BC00002010B5044603480068C1682046AF
:1034F0008847002010BD0000F800002010B50446E9
:10350000114800680088401C0F49096808800E496E
:10351000096808886421FDF713FF002905D10120FF
:1035200009490968C870FFF761FD0748006880888D
:10353000002806DD044800688088401E02490968AA
:103540008880002010BD00002001002001460020DE
:103550007047000010B504460A4800680088401C07
:103560000849096808800749096808881E21FDF78D
:10357000E7FE002903D1012002490968C870002034
:1035800010BD0000680100200146002070470000C7
:1035900070B504460D4620787E2832D1A0780428E4
:1035A00002D0A07802282CD1607816490978884288
:1035B00027D1E1782046FEF747F8002804D1E078CB
:1035C000801E205CAA281CD1A078042811D1207963
:1035D000012816D1E07A002804D1217BE07900F09F
:1035E00027FD0EE0E07A05280BD1607B00F03AF869
:1035F00007E0A078022804D12079012801D100F049
:1036000041F870BD28000020002004E00021034A9A
:103610001154411CC8B20828F8DB7047800A00200A
:10362000002004E00121034A1154411CC8B20828BB
:10363000F8DB7047800A002000B50346FFF7E4FF7F
:1036400001200149C85400BD800A002000F06EFD31
:10365000FFF72AFCFEF780FF03E0FEF7A5FF00F06E
:10366000BBFEFAE70221054A126811700349096896
:1036700048700121024A1170704700006C00002060
:10368000010000200F200349096808700120024949
:10369000087070476C000020010000200421054ADA
:1036A000126811700349096848700121024A1170BB
:1036B000704700006C0000200100002030B58BB086
:1036C000044603A800210B460A460194009102908B
:1036D00004210548007800F009F80546294603A8AA
:1036E000FFF7C2F90BB030BD28000020FFB589B04C
:1036F00015461E46129F002405222146641C0F48D1
:10370000425400222146641C42542246641C1399F0
:1037100081540A4900221498049202922B46019780
:103720000096069403920591079001220A99099840
:10373000FFF77EFA089008980DB0F0BDB1010020A7
:1037400070B504460D4620787E2829D1A07804283B
:1037500002D0A078022823D16078124909788842E3
:103760001ED1E1782046FDF76FFF002804D1E078F4
:10377000801E205CAA2813D1A078042810D12079BB
:10378000F1280DD1E07A002804D1217BE07900F006
:1037900063FC05E0E07A052802D1607BFFF77EFF3D
:1037A00070BD0000280000201CB501211C20FEF780
:1037B000CBFC00216846017001218170C17000249A
:1037C00008E00C4A115D0C4A105D6A46FEF770F97C
:1037D000601CC4B2042CF4DB002408E0054A115D2F
:1037E000054A105D0022FEF7C3F9601CC4B2042C28
:1037F000F4DB1CBDE4000020E800002070B50446A6
:103800000D46042C06DA044A115D044A105D2A466E
:10381000FEF7AEF970BD0000E4000020E8000020D3
:1038200010B504462146024800F050FC002010BDAF
:10383000C501002010B504460B48006801680B481C
:10384000884700280DD00322084933312046333001
:10385000FDF78AFD0E2206A1601CFDF785FD012003
:1038600010BD0020FCE700002400002035060020E9
:10387000636F6D6D756E69636174696F6E000000D2
:1038800010B504460A490B48FFF750F800280CD041
:10389000204633300849086005480178401C00F094
:1038A0003DFD002801D0012010BD0020FCE70000F4
:1038B0009A060020000700206C000020014600202E
:1038C0007047000010B50446FF206070144800687F
:1038D000016820468847134908780978491C114B2C
:1038E00019706321FDF72CFD002909D1E1783320FF
:1038F000015505220CA1601CFDF736FD012010BD0D
:103900006078FF2809D0617833200155072208A18B
:10391000601CFDF729FD0120F1E70020EFE7000022
:1039200098000020B00000206469616C0000000075
:10393000627574746F6E000010B50446601C00F070
:103940004BF8FFF73BFAE070002010BD0146002065
:103950007047000010B5044603480068016820461F
:103960008847002010BD00001401002001460020FF
:103970007047000010B504460C49096808886421A6
:10398000FDF7DEFC00290FD10948407801280BD152
:103990000020074948700846017833200155092264
:1039A00004A1601CFDF7E0FC002010BD68010020B0
:1039B00054010020696E6672617265640000000047
:1039C00010B5044607214020FEF766F8332108555C
:1039D0003320005D10BD000010B50246002116E046
:1039E000C8000D4B185C00280FD1C800C0184078E3
:1039F00000280ADD1170C800C018407850700020FF
:103A0000CB00054C1B19587003E0481CC1B20829B3
:103A1000E6DB00BF002010BD7609002010B50021B4
:103A20000448FEF75FF9002401E0601CC4B2322CA8
:103A3000FBDB10BD0008004010B50446012C04D18A
:103A400000210846FEF786F803E000210846FEF74D
:103A500015F810BD014605480068C078012803D15B
:103A60000020024A1268D070002070470C0000202D
:103A700010B50446034800680169204688470020C5
:103A800010BD000024000020014605480068C078F1
:103A9000012803D10020024A1268D070002070472C
:103AA0005400002010B50446034800680169204610
:103AB0008847002010BD00009800002010B5044683
:103AC00006480068C078012805D10020034909682C
:103AD000C870FEF725FE002010BD0000BC000020CD
:103AE00010B5044603480068016920468847002055
:103AF00010BD0000F800002010B504465E480068C4
:103B0000C07801287ED100205B490968C87000BFD9
:103B1000A6E05A49095C00294FD0574909688988AD
:103B2000002936DD01460831544A515C00291CDD6C
:103B300001460831515C491ECAB2014608314F4B5B
:103B40005A544F49CA79410043184E49CA544C4906
:103B50000B7A41004118491C4A4A535448494B7A50
:103B600041004118891C535478E045490A794100C5
:103B700043184449CA5442494B7941004118491CF1
:103B8000404A53543E498B7941004118891C535493
:103B900064E03B498A7A410043183A49CA5438499B
:103BA000CB7A41004118491C364A535434490B7BA7
:103BB00041004118891C535450E02F4909688988F5
:103BC000002938DD014608312C4A515C00291EDDF0
:103BD00001460831515C491ECAB201460831274BE3
:103BE0005A5427490A79410043182649CA5424499E
:103BF0004B7941004118491C224A535420498B7982
:103C0000410000E035E04118891C535426E01C496E
:103C1000CA79410043181B49CA5419490B7A41001B
:103C20004118491C174A535415494B7A4100411811
:103C3000891C535412E012494A7B41004318114930
:103C4000CA540F498B7B41004118491C0D4A5354FB
:103C50000B49CB7B41004118891C5354411CC8B20D
:103C6000102800DA55E70848006841680548401EFA
:103C70008847002010BD000020010020800A00209D
:103C8000DC0A00201C0A00201401002010B50446A4
:103C900021480068C07801283CD100201E490968ED
:103CA000C8701E480068016820468847002819D15E
:103CB0001B488088642804DA19488088401C184909
:103CC000888017488088052824DD1548408800280A
:103CD00004D00020124908700120487000201049CB
:103CE000488017E00E484088642804DA0C48408871
:103CF000401C0B4948800A48408805280ADD0848CE
:103D00008088002803D001200549087048700020F1
:103D100003498880002010BD680100205C0100205C
:103D20005401002010B500240AE0A000064A1058F3
:103D30000169064888470548FEF705FC601CC4B2C7
:103D4000052CF2DB002010BD980100205B0B002049
:103D500070B505460024072412E068780121A140CF
:103D60000840002805D0FE200721091BA14A505415
:103D700004E080200721091B9E4A5054601E44B273
:103D8000002CEADA072412E028780121A14008403B
:103D9000002805D0FE200F21091B964A505404E04C
:103DA00080200F21091B934A5054601E44B2002CFE
:103DB000EADA072412E0A8780121A140084000288F
:103DC00005D0FE201721091B8A4A505404E08020A8
:103DD0001721091B874A5054601E44B2002CEADAAE
:103DE00000BF04218448FDF764FF0028F9D0814812
:103DF00000788149C86000BF04217F48FDF759FF62
:103E00000028F9D07B4840787B49C86000BF042176
:103E10007948FDF74EFF0028F9D07648807876493A
:103E2000C86000BF04217448FDF743FF0028F9D0A3
:103E30007048C0787049C86000BF04216E48FDF723
:103E400038FF0028F9D06B4800796B49C86000BF83
:103E500004216948FDF72DFF0028F9D06548407915
:103E60006549C86000BF04216348FDF722FF0028B0
:103E7000F9D0604880796049C86000BF04215E487D
:103E8000FDF717FF0028F9D05A48C0795A49C86091
:103E900000BF04215848FDF70CFF0028F9D0554811
:103EA000007A5549C86000BF04215348FDF701FF5F
:103EB0000028F9D04F48407A4F49C86000BF04211C
:103EC0004D48FDF7F6FE0028F9D04A48807A4A4965
:103ED000C86000BF04214848FDF7EBFE0028F9D078
:103EE0004448C07A4449C86000BF04214248FDF7F5
:103EF000E0FE0028F9D03F48007B3F49C86000BF82
:103F000004213D48FDF7D5FE0028F9D03948407B13
:103F10003949C86000BF04213748FDF7CAFE0028B0
:103F2000F9D03448807B3449C86000BF042132484E
:103F3000FDF7BFFE0028F9D02E48C07B2E49C8608F
:103F400000BF04212C48FDF7B4FE0028F9D0294811
:103F5000007C2949C86000BF04212748FDF7A9FE5D
:103F60000028F9D02348407C2349C86000BF0421C1
:103F70002148FDF79EFE0028F9D01E48807C1E498E
:103F8000C86000BF04211C48FDF793FE0028F9D04B
:103F90001848C07C1849C86000BF04211648FDF7C6
:103FA00088FE0028F9D01348007D1349C86000BF7F
:103FB00004211148FDF77DFE0028F9D00D48407D11
:103FC0000D49C86000BF04210B48FDF772FE0028B0
:103FD000F9D00848807D0849C86000BF0421064820
:103FE000FDF767FE0028F9D00248C07D0249C8608D
:103FF00070BD0000900A00200008004070B58CB031
:1040000004460D4604A9601CC0B20123002201959C
:104010000291009003210548007800F031F806462F
:10402000314604A8FEF720FD0CB070BD280000202A
:104030000122074B1B681A70421E054B1B685A7001
:10404000034A126891700122024B1A7070470000F7
:104050006C000020010000200322074B1B681A702F
:10406000421E054B1B685A70034A12689170012268
:10407000024B1A70704700006C0000200100002005
:10408000FFB589B015461E46129F00240022214626
:10409000641C0D4842542246641C139981540A49F9
:1040A00000221498049202922B46019700960694DF
:1040B00003920591079001220A990998FEF7B8FD2D
:1040C000089008980DB0F0BDB101002070B504460D
:1040D0000D4600262078002813DD20786522504305
:1040E000621C811865222846FDF73EF92178652279
:1040F0005143621C88186521FDF74FF92078401E56
:104100002070304670BD70B504460D4620780928F1
:104110000BDA2078401C2070217865225143621C04
:10412000881865222946FDF71FF970BD38B50421AE
:104130006846FEF7DBFD01242046FDF7CFFB00219A
:104140006846017004214170032181700C21C17007
:10415000FDF75EFF0720FDF7E5FF01210420FDF7D5
:10416000D7FD0420FDF7FCFF024800F01BF900F02A
:1041700037F938BD80BB000070B504460D46207885
:104180007E281CD1A078112819D1102D17D1E178E3
:104190002046FDF759FA002804D1E078801E205C03
:1041A000AA280CD10822211D0548FDF7DDF8207B47
:1041B000034910390876607B4876FEF7E7FE70BD4C
:1041C000EC0A002070B504460D4620787E2820D1E8
:1041D000A07810281DD1122D1BD1E1782046FDF7C3
:1041E00033FA002804D1E078801E205CAA2810D180
:1041F0000C22211D0748FDF7B7F800200549091FCB
:10420000087001204870022088700320C870FEF7F3
:10421000BDFE70BDE00A002070B5002418E0A000CB
:104220000D4A105801680D488847002509E0AC4246
:1042300005D0A800084A1058416808488847681CFB
:10424000C5B2052DF3DB0548FEF77DF9601CC4B24D
:10425000052CE4DB002070BD980100205B0B0020E2
:104260001CB506216846FEF741FD01211C20FDF723
:104270006BFF0021684601706A4602210020FDF7AD
:1042800017FC012202210020FDF75AFC012168469B
:1042900001706A4603210020FDF70AFC0122032178
:1042A0000020FDF74DFC00216846017081706A46D0
:1042B0000846FDF7FDFB00210846FDF7DFFB1CBDAE
:1042C0001FB510216846FEF711FD01210846FDF7D4
:1042D0003BFF40216846017000214180042141706C
:1042E0004B21C9010391012149028180FDF780FE24
:1042F000029069460848FDF7D9FF00210648FDF7FE
:104300009FFF00210448FDF7BAFF01220321072087
:10431000FDF7CAF91FBD00000001004070B504465A
:104320000D4600200849087029462046FFF730F95D
:1043300029462046FFF704FA29462046FEF7A8FD45
:104340000148007870BD00000100002070B50446EF
:104350000D4616462078012804D1A1786078FFF731
:104360004DFE05E020780F2802D16078FFF7A6F90E
:1043700070BD000010B5082207490848FCF7F4FF9B
:1043800005481038407E05490E39C8750248103876
:10439000007E0349087010BDEC0A00202B060020A7
:1043A0001001002010B50446601E0949884201D959
:1043B000012010BD601E074948610321081FFEF758
:1043C0003BF8002003498861072008610020F0E7DE
:1043D000FFFFFF0000E000E010B5FDF7D3FF10BDC8
:1043E00010B501210F20FDF7AFFE0B210020FDF7D6
:1043F000D1FFFDF7E5FF10BD10B504462046FEF7DE
:1044000047FB2046FEF7D8F82046FEF7BDFC2046C5
:10441000FEF7F2FE002010BD10B5044609A1601C95
:10442000FCF7C6FF00280BD0322221463331084862
:10443000FCF79AFF07480068416805483338884709
:10444000002010BD6C67635F636F6D6D000000003E
:10445000680600202400002010B50446034A511CC1
:1044600020463330FFF772FF002010BD9A0600206F
:1044700070B50446002500211248FDF7ECFE01202E
:10448000FFF7DAFA0A20FEF741FC00BF06E0601CE5
:10449000415D0C48FDF758FF681CC5B22078A84262
:1044A000F5DC0020FFF7C8FA0A20FEF72FFC0021F8
:1044B0000448FDF7C5FE00210248FDF7E0FE00209C
:1044C00070BD00000001004010B5044606A1601C4C
:1044D000FCF76EFF002804D00548006841682046BC
:1044E0008847002010BD00006C67635F6F75740023
:1044F0009800002070B504463320005D01280AD1E1
:104500003420005D042820DA3522115D3422105D4C
:10451000FFF774F919E03320005D022815D100255A
:1045200011E03420005D0121A9400840002804D199
:1045300000212846FFF762F903E001212846FFF732
:104540005DF9681CC5B2042DEBDB002070BD0000D6
:1045500010B5044609A1601CFCF72AFF00280BD007
:104560003222214633310748FCF7FEFE0648006838
:104570004168044833388847002010BD6C67635F8A
:1045800072676200E9090020F8000020014633202C
:10459000405C01282AD13420405C08284ADA3520C2
:1045A000405C002805D100223420405C224B1A5484
:1045B00040E03520405C012805D101223420405CD8
:1045C0001D4B1A5436E03520405C022832D10122BE
:1045D0003420405C0830184B1A54184800787D226B
:1045E000D2005043164A1268908023E03320405C8A
:1045F000022813D100200EE03422525C01238340B4
:104600001A40002A02D10C4B1A5402E001220A4B34
:104610001A54421CD0B20828EEDB0BE03320405C79
:10462000032807D1054800787D22D2005043044A70
:104630001268908000207047800A0020100100203E
:104640002001002070B50546FFF7E8F972B6002496
:104650000DE061006218691C5018FFF779FB6100DA
:104660006218691C5018FFF773FB601CC4B2082C59
:10467000EFDB62B6002070BD0146002070470146A6
:104680000020704700093D0000127A000024F40069
:104690004086510100366E01008000962000000027
:1046A000170000001B00000050460000E02202003E
:1046B00018000000F0000000E80300000400000003
:1046C00003000000E446000000000020B0010000EC
:1046D000E4150000F0470000B0010020100E0000BB
:1046E00038250000C122042420213823F943233D2A
:1046F0003223253423553A1A5818B2011A35242387
:1047000019441A59241A59241A71241A8424811A12
:104710004C0C1A81241A59241A71241A71241A89EA
:1047200024139B0614206DAC13FF0A922623CF6836
:104730001ABD2C1A712C1A892C1A912C411AC044BA
:104740001AC5181AC9181A99181A99181AA544C11D
:104750001AB6242339391AF5241AB1241AB1241AA5
:10476000BD24380A08090C0D0E0F080B4001211D4D
:104770000704050650214E01020304051613240107
:104780001B204D3C1B514534193C1AE53C5AE16055
:104790001A3C1C412388131A180C1A55281A8D2804
:1047A0001AD5281AFD285AF9281A6D1823454623C8
:1047B0000D33634D354BDC0A3C415A8048411A6049
:1047C0000C1A75301A79301A71301A5530238D3C15
:1047D0001AC1141A7F141A89145A8944411A9CDC8C
:1047E0001AFC04196F1B2010042A6C4C13093D009D
:04000005000012C124
:00000001FF
